{
    "contractName": "FallbackOptimized",
    "abi": [
        {
            "stateMutability": "payable",
            "type": "fallback"
        },
        {
            "inputs": [
                {
                    "internalType": "address",
                    "name": "",
                    "type": "address"
                }
            ],
            "name": "balance",
            "outputs": [
                {
                    "internalType": "uint256",
                    "name": "",
                    "type": "uint256"
                }
            ],
            "stateMutability": "view",
            "type": "function"
        },
        {
            "inputs": [],
            "name": "deposit",
            "outputs": [],
            "stateMutability": "payable",
            "type": "function"
        },
        {
            "inputs": [],
            "name": "withdraw",
            "outputs": [],
            "stateMutability": "nonpayable",
            "type": "function"
        },
        {
            "stateMutability": "payable",
            "type": "receive"
        }
    ],
    "bytecode": "60808060405234601557610259908161001a8239f35b5f80fdfe6080806040526004361015610067575b5036156100655760405162461bcd60e51b815260206004820152602160248201527f46616c6c6261636b2066756e6374696f6e206e6f7420696d706c656d656e74656044820152601960fa1b6064820152608490fd5b005b5f3560e01c9081633ccfd60b1461010d57508063d0e30db0146100d35763e3d670d714610094575f61000f565b346100cf5760203660031901126100cf576004356001600160a01b038116908190036100cf575f525f602052602060405f2054604051908152f35b5f80fd5b5f3660031901126100cf57335f525f60205260405f208054903482018092116100f95755005b634e487b7160e01b5f52601160045260245ffd5b346100cf575f3660031901126100cf57335f525f60205260405f20549081156101e8575f8080808533825281602052816040812055335af13d156101e3573d67ffffffffffffffff81116101cf5760405190601f8101601f19908116603f0116820167ffffffffffffffff8111838210176101cf5760405281525f60203d92013e5b1561019657005b60405162461bcd60e51b815260206004820152601160248201527015da5d1a191c985dd85b0819985a5b1959607a1b6044820152606490fd5b634e487b7160e01b5f52604160045260245ffd5b61018f565b62461bcd60e51b81526020600482015260166024820152754e6f2062616c616e636520746f20776974686472617760501b6044820152606490fdfea2646970667358221220ed51ac587884420b09ed6d6d7eafcbdd897b362c300ca87e48f5e95a2282d89464736f6c63430008210033",
    "sourcePath": "c:/Users/1020053/Documents/MEBlockchain/SolidityAvanzado/fallback_optimizado.sol",
    "compiler": {
        "name": "solc",
        "version": "0.8.33+commit.64118f21"
    },
    "functionHashes": {
        "balance(address)": "e3d670d7",
        "deposit()": "d0e30db0",
        "withdraw()": "3ccfd60b"
    },
    "gasEstimates": {
        "creation": {
            "codeDepositCost": "120200",
            "executionCost": "172",
            "totalCost": "120372"
        },
        "external": {
            "": "270",
            "balance(address)": "2407",
            "deposit()": "24434",
            "withdraw()": "infinite"
        }
    }
}