{
    "contractName": "RandomnessVulnerable",
    "abi": [
        {
            "inputs": [],
            "stateMutability": "nonpayable",
            "type": "constructor"
        },
        {
            "inputs": [],
            "name": "generateRandomNumber",
            "outputs": [],
            "stateMutability": "nonpayable",
            "type": "function"
        },
        {
            "inputs": [],
            "name": "randomNumber",
            "outputs": [
                {
                    "internalType": "uint256",
                    "name": "",
                    "type": "uint256"
                }
            ],
            "stateMutability": "view",
            "type": "function"
        }
    ],
    "bytecode": "60808060405234601757425f5560e1908161001c8239f35b5f80fdfe60808060405260043610156011575f80fd5b5f3560e01c908163773a115414604e575063ccbac9f514602f575f80fd5b34604a575f366003190112604a576020600154604051908152f35b5f80fd5b34604a575f366003190112604a575f549060208101914483524260408301526060820152606081526080810181811067ffffffffffffffff821117609757604052519020600155005b634e487b7160e01b5f52604160045260245ffdfea26469706673582212202a986d3dce7f8bff9a420c69bfefc946a164cf3d4f5bdbbb575d79f21b4629ee64736f6c63430008210033",
    "sourcePath": "c:/Users/1020053/Documents/MEBlockchain/SolidityAvanzado/randomness.sol",
    "compiler": {
        "name": "solc",
        "version": "0.8.33+commit.64118f21"
    },
    "functionHashes": {
        "generateRandomNumber()": "773a1154",
        "randomNumber()": "ccbac9f5"
    },
    "gasEstimates": {
        "creation": {
            "codeDepositCost": "45000",
            "executionCost": "22209",
            "totalCost": "67209"
        },
        "external": {
            "generateRandomNumber()": "24508",
            "randomNumber()": "2275"
        }
    }
}