{
    "contractName": "VulnerableAccessControl",
    "abi": [
        {
            "inputs": [],
            "stateMutability": "nonpayable",
            "type": "constructor"
        },
        {
            "inputs": [],
            "name": "getSecretNumber",
            "outputs": [
                {
                    "internalType": "uint256",
                    "name": "",
                    "type": "uint256"
                }
            ],
            "stateMutability": "view",
            "type": "function"
        },
        {
            "inputs": [],
            "name": "owner",
            "outputs": [
                {
                    "internalType": "address",
                    "name": "",
                    "type": "address"
                }
            ],
            "stateMutability": "view",
            "type": "function"
        },
        {
            "inputs": [
                {
                    "internalType": "uint256",
                    "name": "_secretNumber",
                    "type": "uint256"
                }
            ],
            "name": "setSecretNumber",
            "outputs": [],
            "stateMutability": "nonpayable",
            "type": "function"
        }
    ],
    "bytecode": "60808060405234602557600180546001600160a01b0319163317905560c69081602a8239f35b5f80fdfe60808060405260043610156011575f80fd5b5f3560e01c90816352ee5a5514607a57816384c1d6391460635750638da5cb5b146039575f80fd5b34605f575f366003190112605f576001546040516001600160a01b039091168152602090f35b5f80fd5b34605f575f366003190112605f576020905f548152f35b34605f576020366003190112605f576004355f5500fea26469706673582212202c01361cfec8ebae6c2e9e80665affd723410e3cdd4bb5bace0faba5c63e03f464736f6c63430008210033",
    "sourcePath": "c:/Users/1020053/Documents/MEBlockchain/SolidityAvanzado/accessControl.sol",
    "compiler": {
        "name": "solc",
        "version": "0.8.33+commit.64118f21"
    },
    "functionHashes": {
        "getSecretNumber()": "84c1d639",
        "owner()": "8da5cb5b",
        "setSecretNumber(uint256)": "52ee5a55"
    },
    "gasEstimates": {
        "creation": {
            "codeDepositCost": "39600",
            "executionCost": "24334",
            "totalCost": "63934"
        },
        "external": {
            "getSecretNumber()": "2269",
            "owner()": "2321",
            "setSecretNumber(uint256)": "22236"
        }
    }
}